:10000000021F4090F692E0547FF022021E07E54363
:100010006402C37001D3400AE4F53DF53CF53BF5BD
:100020003A22E53D2401F53DE4353CF53CE4353B21
:10003000F53BE4353AF53A20152A7FE07EA57D01AF
:100040007C00AB3DAA3CA93BF8D312078050159029
:100050000139E0640170137FB87E0BFDFCA83A12F1
:1000600007804006122CBD022B6E900000E0FF645A
:10007000FB6005EF64FC7003022D88300F0312292A
:10008000262222021B5F8F088C098D0AE54314602B
:100090001514601D1460252403702CAD0AAC09AF43
:1000A00008122E788024AD0AAC09AF08122B2080EC
:1000B00019AD0AAC09AF08122B47800EAD0AAC0986
:1000C000AF08122AF980037F0122EF64027009ADA4
:1000D0000AAC09AF08122C022222220228B1E4F550
:1000E0000AF516F517F518F519F51A9030B7200A24
:1000F0000593F5138006E4932402F51375F002E5E9
:100100000AA420090A24E0F582E5F03400800824DE
:10011000E4F582E5F03400F583E0F50EA3E0F50F99
:1001200075F002E50AA424B0F582E5F03430F583D9
:10013000E493FE740193FFE50F450E70030203166E
:10014000C3E50E940B4003020316E50F2FFFE50EE7
:100150003EFE9030B8E493FDC3137C002FF50DEC08
:100160003EF50CAF0A122B94EC4D4E4F60129030BE
:10017000B9E493FFC3E50D9FF50DE50C9400F50C74
:10018000AF13A8077401088002C333D8FC14F50B21
:1001900030090302025574F4250AF582E43400F5AF
:1001A00083E025E0F074F4250AF582E43400F58359
:1001B000E0550BF074F2250AF582E43400F583E093
:1001C00025E0F074F2250AF582E43400F583E05569
:1001D0000BF075F002E50AA424CCF582E5F03400BA
:1001E000F583E0FEA3E0FFC3950DEE950C403B9038
:1001F00030C6E4936023200A20EF950FF515EE95A5
:100200000EF514D3E5159517E5149516401A8514C7
:1002100016851517850A18800F74F4250AF582E4EF
:100220003400F583E04401F0051975F002E50AA4F5
:1002300024D0F582E5F03400F583E0FEA3E0C39519
:100240000DEE950C500302031674F2250AF582E4B4
:10025000340002030E74F6250AF582E43400F583B7
:10026000E025E0F074F6250AF582E43400F583E039
:10027000550BF074F8250AF582E43400F583E02587
:10028000E0F074F8250AF582E43400F583E0550BBC
:10029000F075F002E50AA424CCF582E5F03400F50F
:1002A00083E0FEA3E0FFC3950DEE950C403B90303C
:1002B000C6E4936023200A20EF950FF515EE950E06
:1002C000F514D3E5159517E5149516401A851416FF
:1002D000851517850A18800F74F8250AF582E4340D
:1002E00000F583E04401F0051975F002E50AA42445
:1002F000D0F582E5F03400F583E0FEA3E0C3950D70
:10030000EE950C401174F6250AF582E43400F5836D
:10031000E04401F0051A9030B6E493FF050AE50ABF
:10032000C39F50030200FC9030C6E4936040200A53
:100330003D9030BBE493FFE519D39F5005E51A9F2C
:10034000400BE4F518EF04900138F08021E51960C6
:100350001D20090B74F42518F582E434008009741B
:10036000F82518F582E43400F583E04401F0E4F563
:100370000AE4F509AF0A122B94EC4D4E4F60037559
:100380000901E4F511F51274F2250AF582E434004E
:10039000F583E0FF74F4250AF582E43400F583E088
:1003A000FEE4F50BE50BC395135018EF30E00205A2
:1003B00011EFC313FFEE30E0020512EEC313FE058A
:1003C0000B80E174F6250AF582E43400F583E0FF42
:1003D00074F8250AF582E43400F583E0FEE4F50BB9
:1003E000E50BC395135018EF30E0020511EFC3136E
:1003F000FFEE30E0020512EEC313FE050B80E1E4D0
:10040000F510E5132513FFE512C39F400280343039
:100410000A46E51304FFE512C39F40028025E51359
:100420002513FFE511C39F40028018E5122511FF37
:10043000E433FEE513251304FDC3EF9D7480F86ECD
:10044000984015AF0A1227FC75100174EC250AF5C7
:1004500082E43400F583E4F0E5107062E509605E43
:10046000200A02801AE5122511FFE433FEE5132568
:1004700013C39401FDC3EF9D7480F86E98500E7401
:10048000EC250AF582E43400F583E004F0E5132559
:1004900013C39401FF74EC250AF582E43400F5835C
:1004A000E0C39F401474EC250AF582E43400F58320
:1004B000E4F0AF0A1228EC8005AF0A1227FC903056
:1004C000B6E493FF050AE50AC39F500302037122B5
:1004D000BB010689828A83E0225002E722BBFE022A
:1004E000E32289828A83E49322BB010CE58229F509
:1004F00082E5833AF583E0225006E92582F8E62278
:10050000BBFE06E92582F8E222E58229F582E58331
:100510003AF583E49322BB010FF8E58229F582E5E1
:10052000833AF583E028F0225009C58229F8E58254
:1005300026F622BBFE09C58229F8E22582F222F8BE
:10054000EA2583F583E9932822BB010689828A8301
:10055000F0225002F722BBFE01F322F8BB010DE5A9
:100560008229F582E5833AF583E8F0225006E925F1
:1005700082C8F622BBFE05E92582C8F222BC000B28
:10058000BE0029EF8DF084FFADF022E4CCF875F0C9
:1005900008EF2FFFEE33FEEC33FCEE9DEC984005A8
:1005A000FCEE9DFE0FD5F0E9E4CEFD22EDF8F5F06E
:1005B000EE8420D21CFEADF075F008EF2FFFED3376
:1005C000FD4007985006D5F0F222C398FD0FD5F0F4
:1005D000EA22C2D5EC30E709B2D5E4C39DFDE49C24
:1005E000FCEE30E715B2D5E4C39FFFE49EFE120592
:1005F0007DC3E49DFDE49CFC800312057D30D5079E
:10060000C3E49FFFE49EFE22C5F0F8A3E028F0C5F6
:10061000F0F8E582158270021583E038F022BB0104
:1006200010E58229F582E5833AF583E0F5F0A3E051
:10063000225009E92582F886F008E622BBFE0AE985
:100640002582F8E2F5F008E222E5832AF583E993B2
:10065000F5F0A3E99322E88FF0A4CC8BF0A42CFC56
:10066000E98EF0A42CFC8AF0EDA42CFCEA8EF0A418
:10067000CDA8F08BF0A42DCC3825F0FDE98FF0A4A7
:100680002CCD35F0FCEB8EF0A4FEA9F0EB8FF0A49E
:10069000CFC5F02ECD39FEE43CFCEAA42DCE35F0DA
:1006A000FDE43CFC2275F008758200EF2FFFEE336D
:1006B000FECD33CDCC33CCC58233C5829BED9AECD5
:1006C00099E58298400CF582EE9BFEED9AFDEC993F
:1006D000FC0FD5F0D6E4CEFBE4CDFAE4CCF9A88249
:1006E00022B800C1B90059BA002DEC8BF084CFCEEE
:1006F000CDFCE5F0CBF97818EF2FFFEE33FEED33AC
:10070000FDEC33FCEB33FB10D703994004EB99FB72
:100710000FD8E5E4F9FA227818EF2FFFEE33FEED5B
:1007200033FDEC33FCC933C910D7059BE99A400768
:10073000EC9BFCE99AF90FD8E0E4C9FAE4CCFB227F
:1007400075F010EF2FFFEE33FEED33FDCC33CCC848
:1007500033C810D7079BEC9AE899400AED9BFDEC53
:100760009AFCE899F80FD5F0DAE4CDFBE4CCFAE492
:10077000C8F922CFF4CFCEF4CECDF4CDCCF4CC2238
:10078000EB9FF5F0EA9E42F0E99D42F0E89C45F0CF
:1007900022E8600FEFC333FFEE33FEED33FDEC33A1
:1007A000FCD8F122E493FC740193FD740293FE746F
:1007B0000393FF22E493F8740193F9740293FA749B
:1007C0000393FB22ECF0A3EDF0A3EEF0A3EFF022F5
:1007D000A8828583F0D083D0821207E71207E71240
:1007E00007E71207E7E473E493A3C583C5F0C58365
:1007F000C8C582C8F0A3C583C5F0C583C8C582C873
:1008000022A42582F582E5F03583F58322EC8EF073
:10081000A4CCC5F0CCCDF8EFA4CEC5F02DFDE43CC2
:10082000FCE8A42EC8C5F03DFDE43CFCEFA4FFE5C8
:10083000F028FEE43DFDE43CFC228B0A8A0B890C87
:10084000E4F50D9030C393FF7E007007F51075112D
:10085000408013EF64014E7007F51075116080063B
:1008600075100075118075F002E50DA424CCF58299
:10087000E5F03400F583E0F50EA3E0F50FE47F0129
:10088000FEFDFCA90DA80112079190012EE0F8A32E
:10089000E0F9A3E0FAA3E05FFFEA5EFEE95DFDE8B0
:1008A0005CFCE4FBFAF9F8C31207806003020ACD8E
:1008B000D3E50F9400E50E940850030209A8E4253F
:1008C0000FFFE50E34F8FED3EF9511EE95105003AF
:1008D0000209C5AB0AAA0BA90C850D82758300120B
:1008E00004E9FF74EC250DF582E43400F583E0D3D0
:1008F0009F403974EE250DF582E43400F583EFF066
:10090000850D827583001204E9FF74EC250DF582D4
:10091000E43400F583E0C39FFFE49400C313EF13B6
:10092000850D82758300120516020A7420092B7446
:10093000F0250DF582E43400F583E004F0540FD384
:100940009405748094805003020A7474F0250DF5A8
:1009500082E43400F5837405804A74F0250DF58235
:10096000E43400F583E02410F074F0250DF582E402
:100970003400F583E0FF54F0C4540FD39405748021
:1009800094805003020A7474F0250DF582E434005B
:10099000F583EF540FF074F0250DF582E43400F583
:1009A00083E04450F0020A3FC3E50E94084003027E
:1009B0000A3FC3E4950FFF7408950EFED3EF95111F
:1009C000EE951050028078AB0AAA0BA90C850D8217
:1009D0007583001204E9FF74EE250DF582E43400FE
:1009E000F583E0FEEFD39E5003020A7474EC250DEC
:1009F000F582E43400F583EFF0E9250DF9E43AFAE5
:100A0000C003C002C0011204D0FDAA0BA90C850DC1
:100A1000827583001204E9FF74EE250DF582E4343B
:100A200000F583E0FBC3EF9BFFE49400C313EF13D7
:100A3000FFC3ED9FD001D002D0031205498035904D
:100A4000012EE0F8A3E0F9A3E0FAA3E0FBC000C0A8
:100A500001E47F01FEFDFCA90DA801120791D00160
:100A6000D000EB4FFFEA4EFEE94DFDE84CFC900153
:100A70002E1207C474EE250DF582E43400F583E0F0
:100A80002401FFE433FE74EC250DF582E43400F517
:100A900083E0D39FE49E503590012EE0F8A3E0F967
:100AA000A3E0FAA3E0FBC000C001E47F01FEFDFC6F
:100AB000A90DA801120791D001D000EB4FFFEA4E1B
:100AC000FEE94DFDE84CFC90012E1207C49030B6B3
:100AD000E493F9050DE50DC3995003020866E47F20
:100AE00001FEFDFCA8011207918F158E148D138C49
:100AF0001290012EE0FCA3E0FDA3E0FEA3E02401A0
:100B0000FFE43EFEE43DFDE43CFCAB15AA14A91352
:100B1000A812C31207807F0070027F0122E4F5084B
:100B2000C3E5089406748094804003020CFDE50838
:100B300075F006A424FAF582E43400F583E024FE7F
:100B400024FC503A7003020C7824056003020CF177
:100B5000E4FDAF08122614AF087E00D3EF940074B2
:100B60008094805003020CF8EF94067480948040C7
:100B700003020CF87548037549E8E4020C6FE508B8
:100B800075F006A424FDF582E43400F583E0FFE56A
:100B90000875F006A424FCF582E43400F583E00433
:100BA000F0C39F5003020C2EE50875F006A424FC48
:100BB000F582E43400F583E4F0E50875F006A4243A
:100BC000FEF582E43400F583E07052E50875F00626
:100BD000A424FEF582E43400F5837401F0E5087581
:100BE000F006A424FAF582E43400F583E06405708D
:100BF0003DE50875F006A424FFF582E43400F58392
:100C0000E014F07029E50875F006A424FBF582E4F1
:100C10003400F583E0FDAF081219728011E5087504
:100C2000F006A424FEF582E43400F583E4F0E50840
:100C300075F006A424FEF582E43400F583E0700329
:100C4000FD80027D01AF08122614AF087E00D3EFAD
:100C50009400748094805003020CF8EF9406748022
:100C600094804003020CF87548037549E8E4FDFCE4
:100C70007F02122177020CF830142174052549F502
:100C800049E43548F548FEAF49E4FCFD7B847A032E
:100C9000F9F8C3120780501FC214801BD3E5499492
:100CA00005E54894005004D214800C74FB2549F5E6
:100CB0004974FF3548F548AE48AF49AB07AA06C3AB
:100CC00074E89BFF74039AFEE49400FDE49400FC36
:100CD000E47BC07A12F9F8120656E47BE87A03F94D
:100CE000F81206E1AD07AC067F02122177E4FD8021
:100CF000027D01AF081226140508020B20020082B3
:100D0000E4F50975F002E509A424D0F582E5F03494
:100D100000F583E0FEA3E0FF75F002E509A424D40A
:100D2000F582E5F03400F583E0FCA3E0FD75F00208
:100D3000E509A424D8F582E5F03400F583E0F51444
:100D4000A3E0F51575F002E509A424DCF582E5F0D1
:100D50003400F583E0F516A3E0F5179030B8E4937E
:100D6000F92DFDE43CFCD3EF9DEE9C501C200A19AC
:100D700075F002E509A424CCF582E5F03400F58392
:100D8000E0F50CA3E0F50D80048E0C8F0D20091604
:100D900085140E85150F75F002E509A424E0F5828F
:100DA000E5F03400801485160E85170F75F002E506
:100DB00009A424E4F582E5F03400F583E0F510A3FE
:100DC000E0F511C3E50D950FE50C950E400EE50D10
:100DD000950FF50BE50C950EF50A800DC3E50F9503
:100DE0000DF50BE50E950CF50AC3E510940B4008C4
:100DF0009030B8E493FF800CE511451070119030ED
:100E0000B893FFC313FEEF2EF5127513068015E994
:100E1000C313F5129030BAE493300A0625E0F513B7
:100E20008002F51375F002E509A420090A24D8F51B
:100E300082E5F03400800824DCF582E5F03400F52A
:100E400083E50CF0A3E50DF0AF09122B94EC4D4EA9
:100E50004F705BD3E50B9512E50A9400505074EE89
:100E60002509F582E43400F583E004F0C3951340CE
:100E70004A74EE2509F582E43400F583E4F075F058
:100E800002E509A424E0F582E5F03400F583E514D9
:100E9000F0A3E515F075F002E509A424E4F582E578
:100EA000F03400F583E516F0A3E517F0800D74EE3D
:100EB0002509F582E43400F583E4F09030B6E4933C
:100EC000FF0509E509C39F5003020D0322E4F5095C
:100ED000200803020FE2300903020F737B017A003E
:100EE00079E812083AEF700302105FE4F5099030D8
:100EF000B6E493FFE509C39F506C9030C3E493FFC1
:100F00007E0070028006EF64014E702C74EE25099D
:100F1000F582E43400F5837420F074EA2509F58243
:100F2000E43400F58374FEF074EC2509F582E434B2
:100F300000F58374FEF0802A74EE2509F582E4340E
:100F400000F5837420F074EA2509F582E43400F595
:100F500083747FF074EC2509F582E43400F5837422
:100F60007FF00509808890012E1207D00000000054
:100F7000D209227B017A0079EA12083AEF70030263
:100F8000105FC209D20CE4F5099030B6E493FFE596
:100F900009C39F400302105F74EC2509F582E43415
:100FA00000F583E4F074EE2509F582E43400F5835E
:100FB000E4F075F002E509A424E0F582E5F03400E0
:100FC000F583740BF0A3E4F075F002E509A424E4C2
:100FD000F582E5F03400F583740BF0A3E4F0050925
:100FE00080A7D208E4F5099030B6E493FFE509C381
:100FF0009F506C9030C3E493FF7E0070028006EF38
:1010000064014E702C74EE2509F582E43400F583FA
:101010007420F074E82509F582E43400F58374FE49
:10102000F074EC2509F582E43400F58374FEF08059
:101030002A74EE2509F582E43400F5837420F074F7
:10104000E82509F582E43400F583747FF074EC251B
:1010500009F582E43400F583747FF0050980882265
:10106000E4F50CF50BF50AF509FBFAF50D75F00240
:10107000EBA424D0F582E5F03400F583E0F50EA36F
:10108000E0F50F75F002EBA424D4F582E5F034000E
:10109000F583E0FEA3E0FF9030B8E493FD7C00EF21
:1010A0002DFFEC3ECF2402CF3400FED3E50F9FE5A9
:1010B0000E9E40247E007401A803088005C333CE31
:1010C00033CED8F9FFE50C4FF50CE50B4EF50BE5EB
:1010D0000AF50AE509F5090A9030B6E493FF0BEB2F
:1010E000C39F4089EF132401FFE433FEC3EA9FEE60
:1010F0006480F8748098401C750D01E4900121F023
:10110000900120E004F0940274809480401BE4F08D
:10111000D20A8015900121E004F0C39402748094F7
:10112000804006E4F0900120F0900122E0FCA3E072
:10113000FDA3E0FEA3E0550CFFEE550BFEED550AB6
:10114000FDEC5509FCE4FBFAF9F8C3120780601DB9
:10115000750D01E490011FF090011EE004F0C394AE
:101160000274809480401BE4F0D20A801590011F25
:10117000E004F0C39402748094804006E4F090018F
:101180001EF0AF0CAE0BAD0AAC099001221207C4E1
:10119000300A51E50D704DFFFEFDFC900132E0F884
:1011A000A3E0F9A3E0FAA3E0FBC312078070169056
:1011B000012675F001120608FEC3E5F09464EE9472
:1011C0000040288015900126E475F001120608FE03
:1011D000C3E5F0942CEE94014011E4900126F0A3B5
:1011E000F0C20A22E4900126F0A3F022E543640253
:1011F000C37001D3400302136E12162D900139E023
:1012000024FD603914604614606B1470030212A14F
:101210001470030212F62405600302136AE4FFFE51
:10122000FDFC90013CE0F8A3E0F9A3E0FAA3E0FBA9
:10123000C3120780703D9001397403F0221225C358
:101240009001397404F0A3E0FF7404804CE4FFFEC5
:10125000FDFC90013CE0F8A3E0F9A3E0FAA3E0FB79
:10126000C3120780700D9001397405F0A3E0FF747C
:10127000058026805CE4FFFEFDFC90013CE0F8A3C5
:10128000E0F9A3E0FAA3E0FBC3120780701190011C
:10129000397406F0A3E0FF740624FDFD02277C806C
:1012A00030E4FFFEFDFC90013CE0F8A3E0F9A3E090
:1012B000FAA3E0FBC31207807017C2A1C21090010D
:1012C0003BF0A31207D000008CA09001397407F006
:1012D0002290013CE0FCA3E0FDA3E0FEA3E024FF9C
:1012E000FFEE34FFFEED34FFFDEC34FFFC90013CDB
:1012F0001207C40225C3E4FFFEFDFC90013CE0F8A8
:10130000A3E0F9A3E0FAA3E0FBC31207807007D2C1
:1013100015900139F022E47BA07A0FF9F890013C96
:10132000E0FCA3E0FDA3E0FEA3E0FF1206E1AC00B9
:10133000AD01AE02AF03E4FBFAF9F8C31207807007
:10134000057F05121D6990013CE0FCA3E0FDA3E0D0
:10135000FEA3E024FFFFEE34FFFEED34FFFDEC348E
:10136000FFFC90013C1207C48000C2A1C2102230D1
:101370001614900141E07002A3E07055900143E023
:101380007002A3E0704B900140E06405702DC3E54E
:101390004C9402748094805022054C7405F0A37420
:1013A00003F0A37484F0A3E4F0A3740AF07D907FAB
:1013B00003122E3AD216C2900214CEE4F54C9001DC
:1013C00040F0A3F0A3F0A3F0A3F0C216D290021451
:1013D000BCD3900144E09400900143E09400400DA0
:1013E00074FFF5F012060845F07002D290D3900118
:1013F00042E09400900141E0940050030214D4A311
:10140000E024FFF0900141E034FFF0900140E064FF
:1014100004702AD3900142E09408900141E09407BF
:1014200040047D818047D3900142E0944090014187
:10143000E0940640047D9080027DA38030900140BE
:10144000E06401702DD3900142E09408900141E0E6
:10145000940740047DA38015D3900142E09440900E
:101460000141E0940640047D9080027D817F03026B
:101470002E3A900140E06405705AD3900142E09406
:10148000C4900141E0940940028043D3900142E0BE
:1014900094D0900141E0940740028020D390014213
:1014A000E094DC900141E0940540028021D390015A
:1014B00042E094E8900141E094034003022E9FD360
:1014C000900142E094F4900141E094014003022E27
:1014D0009B122E9F227F2812206F8E098F0AE50A09
:1014E0004509700790000074FB8010C3E50A94FF63
:1014F000E509940F400C90000074FCF0E4900003A8
:10150000F022C374FF950AFF740F9509FE7C037DDA
:10151000E812080DC006C007AE09AF0AAB07AA065D
:10152000E4F9F8D007D0061206E18F0E8E0D8D0C6F
:101530008C0B903034E493FE740193FFE4FCFDAB1C
:101540000EAA0DA90CA80BC312078050030215D0D8
:10155000902EA6E493FE740193FFE4FCFDA80BD348
:10156000120780506BE4F508C3E50894C7748094B3
:1015700080504E75F002E508A424A6F582E5F0340B
:101580002EF583E493FE740193FFE4FCFDAB0EAAF9
:101590000DA90CA80BD3120780502275F002E508A4
:1015A000A424A8F582E5F0342EF583E493FE7401BB
:1015B00093FFE4FCFDA80BD31207805004050880BC
:1015C000A7E4900000F0900002F0900001F080523B
:1015D000903034E493FE740193FFE4FCFDAB0EAA5B
:1015E0000DA90CA80BC3120780501C7508C79000EA
:1015F00001E004F094327480948040267432F090BC
:10160000000074FDF0801BE4F508900002E004F097
:10161000D394327480948040097432F09000007446
:10162000FEF0AF081223E3900003EFF0227D01E407
:10163000FF121972900139E024FE24FB500560610D
:101640000216FD90013AE0640170047D068002E418
:10165000FD7F0112197290013AE0640270047D0668
:101660008002E4FD7F0212197290013AE064037077
:10167000047D068002E4FD7F0312197290013AE0B6
:10168000640470047D068002E4FD7F0412197290E8
:10169000013AE0640570057D06021757E4FD021764
:1016A0005790013AE0640170047D028002E4FD7FFE
:1016B0000112197290013AE0640270047D02800206
:1016C000E4FD7F0212197290013AE0640370047D18
:1016D000028002E4FD7F0312197290013AE0640473
:1016E00070047D028002E4FD7F0412197290013AB9
:1016F000E0640570047D028002E4FD805A90013AA6
:10170000E0640170047D018002E4FD7F0112197222
:1017100090013AE0640270047D018002E4FD7F02E2
:1017200012197290013AE0640370047D018002E4B2
:10173000FD7F0312197290013AE0640470047D0188
:101740008002E4FD7F0412197290013AE064057092
:10175000047D018002E4FD7F051219722290F6D00B
:10176000E054FEF0A3E0548FF0C083C082E0FE900E
:101770000137E09030B493FDEE4DD082D083F090ED
:10178000F6D2E054C0F0C083C082E0FE900137E0A2
:101790009030AE93543FFDEE4DD082D083F02009BF
:1017A00055900137E024F0F582E43400F583E054ED
:1017B0000FFFD394057480948040027F0590F6D784
:1017C000E054F8F0C083C082E0FEEF9030E193FD7A
:1017D000EE4DD082D083F0900137E024E8F582E42A
:1017E0003400F583E090F6D4F0900137E024E8F57A
:1017F00082E434008056900137E024F0F582E4342E
:1018000000F583E054F0C4540FFFD3940574809422
:101810008040027F0590F6D7E054F8F0C083C08284
:10182000E0FEEF9030E193FDEE4DD082D083F0905A
:101830000137E024EAF582E43400F583E090F6D441
:10184000F0900137E024EAF582E43400F583E0FE0D
:101850009030C3E4938EF0A490F6D5F090F6D9744E
:1018600080F090F6D0E04401F022E4FFFE9030C119
:10187000937003021971300A0302197175F002EEB8
:10188000A424E0F582E5F03400F583E0FCA3E0D386
:101890009400EC940B5006C3EC940550089001287A
:1018A000E004F07F0175F002EEA424E4F582E5F097
:1018B0003400F583E0FCA3E0D39400EC940B5006D5
:1018C000C3EC94055008900128E004F07F019030AB
:1018D000B6E493FD0EEEC39D40A2EF700590012883
:1018E000F022900128E0C394647480948050030235
:1018F00019719030C2E493FFF4600E900129E00466
:10190000F0D39F4004E4F0D207200765E49001285B
:10191000F0C20C90012E1207D000000000C209C2D4
:1019200008E4FE9030B6E493FFEEC39F503975F0A3
:1019300002EEA424E0F582E5F03400F583740BF0A8
:10194000A3E4F075F002EEA424E4F582E5F034009F
:10195000F583740BF0A3E4F074F02EF582E4340008
:10196000F583E4F00E80BC9001321207D000000035
:101970000022EF75F006A424FAF582E43400F58322
:10198000E0FE6D7003021A6FEE64057014EF75F0DF
:1019900006A424FFF582E43400F583E06003021A14
:1019A0006FEF75F006A424FAF582E43400F583E0C5
:1019B000FEEF75F006A424FBF582E43400F583EE17
:1019C000F0EF75F006A424FAF582E43400F583ED17
:1019D000F0EF75F006A424FEF582E43400F583747C
:1019E00001F0EF75F006A424FFF582E43400F583DE
:1019F000E4F0EDFB7A0064047002802FEB64034A8C
:101A00007013EF75F006A424FDF582E43400F5832D
:101A10007432F0803AED64057024EF75F006A4246A
:101A2000FFF582E43400F5837402F0EF75F006A44C
:101A300024FDF582E43400F5837414F08011EF7511
:101A4000F006A424FDF582E43400F5837464F0EF1D
:101A500075F006A424FDF582E43400F583E0FEEF82
:101A600075F006A424FCF582E43400F583EEF02240
:101A7000052DC3E52D9404748094805003021B5EF1
:101A8000E4F52DF52AF523D3E52B9400748094809A
:101A90004002152B121CC0900132A3A3A3E0F52332
:101AA000D21124FE600804700A752A028008752A83
:101AB000038003752A06D3E5259400E524940040AD
:101AC00041E525152570021524E52545247033E5EB
:101AD00023702F532E7FAF2CFED3EF94017480948C
:101AE000804010EF9406748094805007AD2FAC2E88
:101AF000120086C212E4F52EF52FC211752A017567
:101B00002C01E52AB52C04E52B7053AF2AD3EF94B2
:101B100001748094804047EF940674809480503E16
:101B2000052FE52F7002052E532E7FAE2EFFE4FC0D
:101B3000FD7B2C7A01F9F8C31207805006752E013F
:101B4000752F2C30110F852A2C432E80752B19757B
:101B50002400752519AD2FAC2EAF2A12008622C0A5
:101B6000E0C0D075D000C000C006C00720130DD261
:101B7000D87853760078557600021C0A7855067896
:101B800053E6FF7E007016D2D87855E6C3940274EF
:101B90008094804075760078537601806DEF640103
:101BA0004E701AC2D87855E6C3940474809480406D
:101BB000597600784F760078537602804D7853E658
:101BC0006402702E18E6FF1392D87855E6C3940489
:101BD0007480948040347600784F06E694087480D0
:101BE00094804006785376038020EFC3137852F632
:101BF0008018D2D87855E6C3940474809480400A43
:101C00007853760078557600C213D007D006D000FE
:101C1000D0D0D0E032E4FB75F002EBA424D0F58202
:101C2000E5F03400F583E0F509A3E0F50A75F0026C
:101C3000EBA424D4F582E5F03400F583E0F50BA3A2
:101C4000E0F50C75F002EBA420090A24D8F582E532
:101C5000F03400800824DCF582E5F03400F583E000
:101C6000FCA3E0FDE50C450B6046ED4C6042E50C45
:101C70002DFFE50B3CC313FEEF13FF75F002EBA441
:101C800024D4F582E5F03400F583EEF0A3EFF0E51F
:101C90000A2DFFE5093CC313FEEF13FF75F002EBBD
:101CA000A424D0F582E5F03400F583EEF0A3EFF044
:101CB0009030B6E493FF0BEBC39F5003021C172236
:101CC000E4F508200D2DD20D90F6DDF090F6DCE065
:101CD000540790012DF0E0D3940674809480400561
:101CE0007406F0800890012DE0700204F012236D5C
:101CF00012175D900136E06401704D90012CF030B8
:101D00000C3CB209121C15120D001210601200DEFC
:101D1000B209200B0E9030BBE493FF900138E0D362
:101D20009F4005122C45C20BE4900138F012186A4E
:101D3000E4900136F090F6D9E04480F08028120E4D
:101D4000CDE4900136F080189030C0E493FF601627
:101D500090012CE004F0C39F400CE4F0900137F0B8
:101D600012236D12175D0226EF8F0F7E00D3EF94C2
:101D700000748094805003021DFAEF9406748094DE
:101D8000805077E4F510C3E510940574809480507A
:101D900069E51075F005A424C8F582E43430F583B4
:101DA000E493650F7050F54C900140E50FF0E5109D
:101DB00075F005A424CBF582E43430F583E493FF79
:101DC000740193900141CFF0A3EFF0E51075F00599
:101DD000A424C9F582E43430F583E493FF740193BD
:101DE000900143CFF0A3EFF07D907F03122E3AD203
:101DF00016C290022E9B0510808CE4900140F0C228
:101E000016D290122E9F22C0E0C0D075D000C0071D
:101E1000758CF8758A30E5392401F539E43538F5E3
:101E200038E43537F537E43536F536D2000534AFCA
:101E300034C3EF9405748094804005753400D2015A
:101E40000530AF30C3EF940A74809480404F7530F2
:101E500000D2030531AF31EF940A74809480403D85
:101E6000753100D2040532AF32EF94027480948051
:101E70004005753200D2050533AF33C3EF940574C6
:101E80008094804005753300D2060535AF35C3EF29
:101E9000940A748094804005753500D202D007D032
:101EA000D0D0E03274F22FF582E43400F583E4F010
:101EB00075F002EFA424D8F582E5F03400F583E450
:101EC000F0A3F075F002EFA424DCF582E5F0340015
:101ED000F583E4F0A3F074F42FF582E43400F58385
:101EE000E4F074EC2FF582E43400F583E4F074EE52
:101EF0002FF582E43400F583E4F074F82FF582E4E2
:101F00003400F583E4F074F62FF582E43400F583B1
:101F1000E4F0200A2A75F002EFA424E0F582E5F04F
:101F20003400F583740BF0A3E4F075F002EFA42401
:101F3000E4F582E5F03400F583740BF0A3E4F022BD
:101F400078FFE4F6D8FD9000007F007E04E4F0A363
:101F5000DFFCDEFA758155021F95022572E493A31A
:101F6000F8E493A34003F68001F208DFF48029E44B
:101F700093A3F85407240CC8C333C4540F4420C897
:101F8000834004F456800146F6DFE4800B0102042E
:101F900008102040809021F7E47E019360BCA3FFED
:101FA000543F30E509541FFEE493A360010ECF5463
:101FB000C025E060A840B8E493A3FAE493A3F8E452
:101FC00093A3C8C582C8CAC583CAF0A3C8C582C8BE
:101FD000CAC583CADFE9DEE780BE90F6E1E0FE9085
:101FE000F6E0E0FDEDFF900137E075F002A424D0AB
:101FF000F582E5F03400F583EEF0A3EFF090F6E320
:10200000E0FE90F6E2E0FDEDFF900137E075F002B2
:10201000A424D4F582E5F03400F583EEF0A3EFF0CC
:1020200090F6E5E0FE90F6E4E0FDEDFF900137E08C
:1020300075F002A424CCF582E5F03400F583EEF0CF
:10204000A3EFF090F6D0E054FEF09030B6E493FFAA
:10205000900137E004F0C39F4011E4F09001360492
:10206000F0300C0AB20912236D800012175D2212A3
:102070002EA300000000E4F512F51374FFF510F52F
:1020800011E4F514F515F50FC3E50F940A74809467
:10209000805038000043DF02E5DF30E1030080F8C4
:1020A000122BBAEF2515F515EE3514F514D3EF956F
:1020B00013EE951240048E128F13C3EF9511EE9517
:1020C0001050048E108F11050F80BDC3E5159513B8
:1020D000F515E5149512F514C3E5159511F515E5FB
:1020E000149510F514FEE5157803CEC313CE13D85E
:1020F000F9F5158E14FF22EF14602214603114607C
:102100004014604F14605E2405706B90F131ECF068
:1021100090F130EDF090F129E04401F02290F1339C
:10212000ECF090F132EDF090F129E04402F02290D1
:10213000F135ECF090F134EDF090F129E04404F049
:102140002290F137ECF090F136EDF090F129E04477
:1021500008F02290F139ECF090F138EDF090F1298F
:10216000E04410F02290F13BECF090F13AEDF09069
:10217000F129E04420F022EF146022146031146051
:102180004014604F14605E2405706B90F141ECF0D8
:1021900090F140EDF090F129E04401F02290F143FC
:1021A000ECF090F142EDF090F129E04402F0229041
:1021B000F145ECF090F144EDF090F129E04404F0A9
:1021C0002290F147ECF090F146EDF090F129E044D7
:1021D00008F02290F149ECF090F148EDF090F129EF
:1021E000E04410F02290F14BECF090F14AEDF090C9
:1021F000F129E04420F022014400014500C1110111
:102200002B00012C00022E00000224000041014599
:10221000000143000141000142004401320000007E
:1022200000C10B4101360041013800410137004433
:10223000012E0000000041012D00C109C10DC10A9D
:10224000C10CC10841011E0041011F0041012000D5
:10225000410121004401220000000042012600004B
:102260004101280041012900C10742012A00004123
:10227000012C0000300F13C2A1900003E0C394377B
:1022800074809480502405468020900000E064FD16
:10229000600D900003E0D39469748094804002053F
:1022A00046301004D2A18002C2A1E5477040300E32
:1022B00004C20EF546300F19AF46E4FCFDFE7B0864
:1022C000FAF9F8C31207805004C20F801BD20F80A6
:1022D00017AF46E4FCFDFE7B08FAF9F8C31207804D
:1022E0005004D20F8002C20F75470AE4F546154725
:1022F00022E4FF122E8D7D037F021224BB7DC07C61
:10230000127F021220F7E4FDFC7F021221777F0486
:10231000122E557F04122E187F04122E637F021294
:102320002A2590F0227405F07F04122E5CD21490BE
:10233000F052E4F043A50490F007F0439A8090F047
:1023400002F0439A04A3F0439A08A3F0439A10A31F
:10235000F0439A20F508C3E50894067480948050F1
:102360000BE4FDAF08121972050880EA2290F6D03E
:102370007446F0A3E4F0A374C0F0A37460F090304E
:10238000C5E493C43333335480443290F6D6F0908E
:1023900030C4E493C454F090F6D7F0A37441F090A5
:1023A000F6DAE4F0A37404F090F6D1E030091A44B0
:1023B00001F090F6DD74AAF090012DE01490F6DCA7
:1023C000F090F6D3E02404F0224402F090F6DD749D
:1023D000AAF090012DE00490F6DCF090F6D3E02412
:1023E00002F0228F0F900003E0F470127B017A005C
:1023F0007904F5147515C8AD0F122AD180417F01FB
:10240000EFC394C874809480502FEFFD7C00C37498
:10241000C79DFBE49CFA74042BF58274003AF583A3
:10242000E0FEC374C89DFDE49CFC74042DF5827429
:10243000003CF583EEF00F80C7900004E50FF07BC1
:10244000017A0079047DC87C001228757C007DC863
:1024500012057D8F0F22E5436403705EC2A1C21096
:10246000F508E53F453E7002802AE53F153F7002C2
:10247000153EE54024FE601304701C900000E0FF50
:1024800064FB6013EF64FC600E8009A20F500280B1
:1024900001C34003750801E50864017005122AA90B
:1024A0008015E50864027012122AA9122E7FE543F6
:1024B00024FE70030226A7122B6E22EF14601C1458
:1024C000602514602E146037146040240570479016
:1024D000F1237401F090F12AEDF02290F1237401C0
:1024E000F090F12BEDF02290F1247401F090F12C9A
:1024F000EDF02290F1247401F090F12DEDF0229096
:10250000F1257401F090F12EEDF02290F125740187
:10251000F090F12FEDF0228E0D8F0EE4F53DF53C9D
:10252000F53BF53A122D2B502CD2127F03121D6968
:10253000900139E01470109001397402F0A3E0FFAB
:10254000E4FD12277C8028C2A1C210C21590013977
:102550007401F0801A7D1E7C80AF0EAE0D122DFD31
:10256000500DD2127F03121D69122CBD122B6E7FEB
:102570000022122A7D122CF5D2AF300008C20012C0
:102580001A7012136F300105C2011211EC300308EA
:10259000C2031214D5120B1D30040BC20412227494
:1025A00012000E12299230050EC205122D101229AA
:1025B0005C122A51122456300602C2063002BBC2F7
:1025C0000280B790013BE07005C2A1C210229001C9
:1025D0003BE0FF14FE900003E0FD301012C39F406B
:1025E00032C2A1C210900139E064027026801DED54
:1025F000D39E5010D2A1D210900139E06403701321
:102600007402F022900139E064027007C2A1C21086
:102610007403F022EF14601914601F146025146015
:102620002B14603124057035ED7003C2DA22D2DA42
:1026300022ED7003C28522D28522ED7003C284226E
:10264000D28422ED7003C28322D28322ED7003C2B2
:102650008222D28222ED7003C28722D28722C20058
:10266000C201C203C204C205C206C202E4F534F5C7
:1026700030F531F532F533F535F539F538F537F50F
:10268000367B01FDFF1227BEE4FDFF1228397B30A7
:102690007DF8E4FF122BDFE4FF122C8353B8FD43D7
:1026A000B802E4FF022CA07D01E4FF121972900130
:1026B000397401F0A3E0FF7E00D39400748094800D
:1026C0004009EF940674809480400690013A7401AA
:1026D000F090013AE0FFE4FD12277CC2A1C210E4B1
:1026E000F53DF53CF53BF53AC2157F02022E4C90C4
:1026F00030BC1207A4EC4D4E4F603B900132E0FC21
:10270000A3E0FDA3E0FEA3E0FFEC4D4E4F60209060
:10271000012AE475F001120608AFF0FEE4FCFD901A
:1027200030BC1207B4D3120780500BD20B8000E4E8
:1027300090012AF0A3F022E47851F67854F678500C
:10274000F6784DF608F6C2137853F67855F67852B7
:10275000F6784FF67B02FD7F041227BEE4FD7F046E
:102760001228397B307D307F04122BDF7F04122C3E
:102770008353BAFD43BA027F04022CA0EF75F01414
:10278000A42436F582E43430F58375F005ED1208A3
:1027900001E49390013BF0EF75F014A42437F58227
:1027A000E43430F58375F005ED1208011207A4E456
:1027B0007BC8FAF9F812065690013C0207C4EF14E0
:1027C000601724FE60251460292404702E5389F8B4
:1027D000ED25E025E04B42892253898FEBC454F06C
:1027E000FFEDC4333354C04F42892253D2FCEB4235
:1027F000D22253D2CFEBC454F042D2228F1B90018D
:1028000038E004F0900132E0F8A3E0F9A3E0FAA385
:10281000E0FBC000C001E47F01FEFDFCA91BA80194
:10282000120791D001D000EB4FFFEA4EFEE94DFDBB
:10283000E84CFC9001320207C4EF14601724FE60DC
:102840001D1460252404702C538EF7ED333333545C
:10285000F8428E22538EEFEDC454F0428E2253D2B2
:10286000FBED25E025E042D22253D2BFEDC4333345
:1028700054C042D2228B108A1189128C138D14E419
:10288000F515F516FFFEC3EF9514EE9513501DAB2D
:1028900010AA11A9128F828E831204E92516F5164B
:1028A000E43515F5150FBF00010E80DAAE15AF1631
:1028B00022C0E0C0F0C083C082C0D075D000C00587
:1028C000C006C00790F6D9E054016401700DE054D1
:1028D0007FF0900136E07003121FDAD007D006D0E7
:1028E00005D0D0D082D083D0F0D0E0328F1B9001C1
:1028F00032E0F8A3E0F9A3E0FAA3E0FBC000C001D6
:10290000E47F01FEFDFCA91BA801120791120773C9
:10291000D001D000EB5FFFEA5EFEE95DFDE85CFC04
:102920009001320207C47D01E4FF1219727D037F1A
:10293000011219727D037F021219727D037F031247
:1029400019727D037F041219727D037F05121972BB
:10295000754002753E03753F84022E43E543703196
:10296000F508C3E508940674809480500B7D01AF90
:1029700008121972050880EAC2A1C210900145E050
:1029800004F0C394057480948040061200DA122B80
:102990006E22E51D451C7024F51C751D0AAF4312FF
:1029A0002D9B900139E0FF122D9B7F003010027F9C
:1029B00001122D9B900003E0FF022D9BE51D151DCC
:1029C0007002151C22E4F53DF53CF53BF53A122D5D
:1029D0002B5020D2127F03121D69900139E064014F
:1029E0007011A3E004F0E0C3940674809480400367
:1029F0007401F07F00228E0D8F0E122D2B500FD2FE
:102A0000127F03121D691200D91226A780147D328D
:102A10007C80AF0EAE0D122DFD5007D2127F031237
:102A20001D697F0022EF14601014601514601214E9
:102A300060171460142405701790F160E054FEF0E4
:102A40002290F160E054FDF02290F160E054FBF040
:102A500022E5436401C37001D34002801A054BE5AF
:102A60004B7002054AAE4AFFE4FCFD7B2C7A01F96B
:102A7000F8C31207805005E4F54AF54B22122CDA10
:102A800012265E122E0B1222F1122DEE122DAC1216
:102A90002C65122C25122DBD122E2F7F03121D69BD
:102AA000E4900145F0FF022E4CE4F50DC3E50D94D2
:102AB0000674809480500BE4FDAF0D121972050D61
:102AC00080EA7D01E4FF121972E4F53EF53FF5401E
:102AD000228B108A118912E4FFFEC3EF9515EE9543
:102AE000145015AB10AA11A9128F828E83ED120516
:102AF0005B0FBF00010E80E2228C0B8D0CEF24FDDA
:102B0000600E047016AF0CAE0B122D73AE07800D65
:102B1000AF0CAE0B122E86AE0780027E02AF0622ED
:102B20008C0B8D0CEF24FD600E047016AF0CAE0BF9
:102B30001229F6AE07800DAF0CAE0B122E86AE0733
:102B400080027E02AF06228C0B8D0CEF24FD600EFE
:102B5000047016AF0CAE0B122517AE07800DAF0C2C
:102B6000AE0B1229C5AE0780027E02AF0622122CE0
:102B700065E4F50FC3E50F940674809480500BE470
:102B8000FDAF0F121972050F80EAE4F54AF54B7F8D
:102B900001022E4CAB07E47F01FEFDFCA8031207E7
:102BA00091900132E0F8A3E0F9A3E0FAA3E05FFF1F
:102BB000EA5EFEE95DFDE85CFC22E5DFAFDD20E6D4
:102BC00013EF75F010A4FFE5DCC4540FFDEF4DFFCB
:102BD000E5F08007EFFEADDCEDFFEE540FFE22EFD7
:102BE00014601024FE6011146013240470138D8C83
:102BF0008B8A228D8D8B8B228DDB8BDA228DE38B62
:102C0000E222EF24FD600E047016AF05AE04122E12
:102C10006AAE07800DAF05AE04122E71AE078002BA
:102C20007E02AF062290F010E4F043A101122DDEE7
:102C3000C216D290122E9FE4900140F0A3F0A3F0B0
:102C4000A3F0A3F0229001321207D000000000E4AC
:102C5000FE9030B6E493FFEEC39F5008AF06121EFD
:102C6000A40E80ED2290F021E4F043A20290F02A1D
:102C7000E04402F0C2A1C210C20FC20E75470AE4BE
:102C8000F54622EF14600E24FE600D14600E24043D
:102C9000700DD2A922D2AB2243AA012243AA02225A
:102CA000EF14600E24FE600D14600E2404700DD22B
:102CB0008C22D28E2243D2082243D28022C2157B9C
:102CC000017A017939751400751507E4FD122AD1CE
:102CD000E4900139F0C2A1C2102230AF0EC2AF752C
:102CE00096AA75965553977FD2AF227596AA759678
:102CF0005553977F2230AF0EC2AF7596AA75965581
:102D0000439702D2AF227596AA7596554397022231
:102D100030AF0EC2AF7596AA759655439701D2AFE4
:102D2000227596AA75965543970122EE20E713E483
:102D3000FCFD7B0AFAF9F8D3120780400520120245
:102D4000D322C322E4FD7F01122DCE12000390F0A6
:102D5000517401F07F28122EA3022E9390F050E4BC
:102D6000F043A50190F05AE054FEF0A3E054FEF0C9
:102D7000022737122D2B500DD2127F03121D69121C
:102D80002AA9122B6E7F00227D03E4FF12197275AF
:102D90004001753E01753F2C022E438F083013050C
:102DA000122D1080F87852A608D21322122D44E476
:102DB000900000F0A3F0A3F0A374FFF0227B017A4F
:102DC000017939751400751507E4FD022AD153DF26
:102DD000BFED42DF53DE8FEFC454F042DE227D9020
:102DE0007F03122E3A90F0067404F0022E9F90F0AA
:102DF000007401F043A204A3F043A20822C3EF9D94
:102E0000EE9C4005201202D322C322122D5CE4F571
:102E10001CF51DF51EF51F2290F122E0FEEFF4FFD8
:102E2000EE5FF022538E1FEFC43354E0428E227FB8
:102E300007122E24122E97022CF553BFFCEF42BF2F
:102E40008DBE22C2A1C2107F03022E4C8541428555
:102E500043418F432290F127E04FF02290F126E08A
:102E60004FF02290F121E04FF0228E0B8F0C7F006B
:102E7000228E0B8F0C7F00228C0B8D0CE4FF2285A1
:102E80004143854241228E0D8F0E7F012290F12019
:102E9000EFF02243DE802253AADF2243BF80225379
:102EA000BF7F228FD92278B772B66D0A67AE629E55
:102EB0005DD5594E550650F94D244982461242CFF0
:102EC0003FB93CCB3A04376134E1328230412E1DA8
:102ED0002C142A25284F268F24E6235021CB205955
:102EE0001EF81DA91C6B1B3B1A1A1907180117079E
:102EF00016191536145D138F12CA120D115A10AE21
:102F0000100A0F6D0ED70E480DBF0D3C0CBD0C44C2
:102F10000BD00B600AF60A900A2E09D00975091F1A
:102F200008CC087C083007E707A0075D071C06DD12
:102F300006A10668063005FB05C805970567053A32
:102F4000050E04E304BB0493046E0449042604053F
:102F500003E403C503A7038A036E03530339032065
:102F6000030802F002DA02C402AF029A0287027476
:102F700002610250023F022E021E020F020001F106
:102F800001E301D601C901BC01B001A40199018D81
:102F900001830178016E0164015B01520149014026
:102FA000013801300128012001190111010A010431
:102FB00000FD00F700F100EB00E500DF00DA00D4CF
:102FC00000CF00CA00C500C000BC00B700B300AE0F
:102FD00000AA00A600A2009E009B0097009300900C
:102FE000008D0089008600830080007D007A0077D4
:102FF00000750072006F006D006A00680066006373
:103000000061005F005D005B0059005700550053F0
:1030100000510050004E004C004B00490048004653
:103020000045004300420040003F003E003C003BA2
:10303000003A0039003800000000000000000000E5
:103040000000000000000000000063000003846333
:103050000000021C000000000000000000006300EF
:10306000000384630000012C000000000000000049
:1030700000003F000003843F00000168460000029A
:10308000D0000000000044000003844400000E1043
:1030900000000000000000000000630000038463E3
:1030A000000004B00000000000000000000001006B
:1030B000003C003C000002021E0F0A0200000FA0AC
:1030C00014016401030000000101F407D0020014A0
:1030D00003E80300C803E80401F407D00500020375
:0730E0008400010203040556
:00000001FF
